

}
  db deserialize [decode_hexdb {
| size 512 pagesize 65536 filename clusterfuzz-testcase-minimized-sqlite3_dbfuzz2_fuzzer-4806406219825152
| page 1 offset 0
|      0: 53 51 4c 69 74 65 20 66 6f 72 6d 61 74 20 33 00   SQLite format 3.
|     16: 00 01 02 01 00 40 20 20 00 63 2e 78 00 00 00 07   .....@  .c.x....
|     32: 00 00 00 00 00 00 00 00 00 00 00 08 00 00 00 04   ................
|     48: 00 00 00 00 00 00 01 00 35 05 43 00 04 00 00 00   ........5.C.....
|     80: 00 00 00 00 00 00 00 00 08 00 00 00 00 00 00 0c   ................
|     96: 00 2e 2c 50 0d 00 00 00 03 00 00 00 01 da 01 b0   ..,P............
|    112: 01 56 01 86 01 2a 01 02 00 00 00 00 00 00 00 1c   .V...*..........
|    128: 00 38 80 b2 e6 0e 00 00 00 00 00 00 00 00 00 10   .8..............
|    144: 00 00 00 00 00 00 00 00 00 00 00 00 00 00 00 01   ................
|    160: 00 00 00 00 00 00 00 00 00 00 00 00 45 20 54 41   ............E TA
|    256: 00 00 00 00 00 00 22 07 06 17 11 11 01 35 74 61   .............5ta
|    272: 62 6c 00 10 00 00 34 07 43 52 54 45 20 54 41 42   bl....4.CRTE TAB
|    288: 4c 45 20 74 33 28 63 2e 78 2c 65 2c 66 15 28 3a   LE t3(c.x,e,f.(:
|    304: 06 17 11 11 01 65 78 8c cc 87 85 35 05 43 72 45   .....ex....5.CrE
|    320: 41 54 48 20 49 4e 44 45 58 20 74 33 78 20 4f 4e   ATH INDEX t3x ON
|    336: 20 74 33 28 78 39 2e 04 06 17 15 11 01 45 69 6e    t3(x9.......Ein
|    352: 64 65 78 74 32 63 64 74 32 05 43 52 45 41 54 45   dext2cdt2.CREATE
|    368: 20 49 4e 44 45 58 20 74 32 63 64 20 4f 4e 20 74    INDEX t2cd ON t
|    384: 32 28 63 2a 44 29 28 05 fa e8 ee ed 01 3d 74 63   2(c*D)(......=tc
|    400: 62 6c 65 74 33 74 33 07 43 52 45 41 54 45 20 54   blet3t3.CREATE T
|    416: 41 42 4c 45 20 74 33 28 63 2e 78 2c 65 2c 66 15   ABLE t3(c.x,e,f.
|    432: 28 3a 06 17 11 11 01 3d 74 61 62 6c 65 74 32 74   (:.....=tablet2t
|    448: 32 03 43 52 45 41 54 45 20 54 41 42 4c 45 20 74   2.CREATE TABLE t
|    464: 32 28 63 2c 64 2c 65 2c 66 29 24 01 06 17 11 11   2(c,d,e,f)$.....
|    480: 01 35 74 61 62 6c 65 74 31 74 31 02 43 52 45 41   .5tablet1t1.CREA
|    496: 54 45 20 54 41 42 4c 45 20 74 31 28 61 2c 63 29   TE TABLE t1(a,c)
| end clusterfuzz-testcase-minimized-sqlite3_dbfuzz2_fuzzer-4806406219825152



  PRAGMA integrity_check;



    ALTER TABLE t1 RENAME TO alkjalkjdfiiiwuer987lkjwer82mx97sf98788s9789s; 
  
