

}
  db deserialize [decode_hexdb {
.open --hexdb
| size 12288 pagesize 4096 filename crash-40d5739835cbdb.db
| page 1 offset 0
|      0: 53 51 4c 69 74 65 20 66 6f 72 6d 61 74 20 33 00   SQLite format 3.
|     16: 10 00 01 01 00 40 20 20 00 00 00 00 00 00 00 00   .....@  ........
|     96: 00 00 00 00 0d 00 00 00 02 0f 4e 00 0f a2 0f 4e   ..........N....N
|   3904: 00 00 00 00 00 00 00 00 00 00 00 00 00 00 52 02   ..............R.
|   3920: 07 17 11 11 01 81 0f 74 61 62 6c 65 74 32 74 32   .......tablet2t2
|   3936: 03 43 52 45 41 54 45 20 54 41 42 4c 45 20 74 32   .CREATE TABLE t2
|   3952: 28 61 20 49 4e 54 2c 20 62 20 49 4e 54 45 47 45   (a INT, b INTEGE
|   3968: 52 2c 20 50 52 49 4d 41 52 59 20 4b 45 59 28 61   R, PRIMARY KEY(a
|   3984: 2c 62 29 29 20 57 49 54 48 4f 55 54 20 52 4f 57   ,b)) WITHOUT ROW
|   4000: 49 44 5c 01 07 16 11 11 01 81 23 74 61 62 6c 65   ID........#table
|   4016: 74 31 74 31 02 43 52 45 41 54 45 20 54 41 42 4c   t1t1.CREATE TABL
|   4032: 45 20 74 31 28 61 20 49 4e 54 20 50 52 49 4d 41   E t1(a INT PRIMA
|   4048: 52 59 20 4b 45 59 2c 20 62 20 54 45 58 54 2c 20   RY KEY, b TEXT, 
|   4064: 63 20 54 45 58 54 2c 20 64 20 49 4e 54 45 47 45   c TEXT, d INTEGE
|   4080: 52 29 20 57 49 54 48 4f 55 54 20 52 4f 57 49 44   R) WITHOUT ROWID
| page 2 offset 4096
|      0: 0a 00 00 00 06 0f a7 00 0f f4 0f e5 0f d5 0f c5   ................
|     16: 0f b6 0f 00 00 00 00 00 00 00 00 00 00 00 00 00   ................
|   4000: 00 00 00 00 00 00 00 0f 05 01 15 13 01 06 65 7f   ..............e.
|   4016: 25 6e 73 69 78 06 0e 05 01 13 15 03 b5 6f 64 64   %nsix........odd
|   4032: 66 69 76 65 05 0f 05 01 15 15 01 04 65 76 65 61   five........evea
|   4048: e6 6f 75 82 04 0f 05 01 13 17 01 03 6f 64 64 74   .ou.........oddt
|   4064: 68 72 61 15 03 0e 05 01 15 12 01 02 64 76 64 6e   hra.........dvdn
|   4080: 74 77 6f 02 00 00 00 00 00 00 00 00 00 00 00 00   two.............
| page 3 offset 8192
|   2816: 00 00 00 00 00 00 00 00 00 00 00 06 03 02 01 00   ................
|   2832: c8 07 06 03 02 01 00 c7 11 06 03 02 01 02 a6 52   ...............R
|   2848: 06 d5 02 01 10 c5 1b 06 03 02 00 ef c4 53 06 03   .............S..
|   2864: 02 01 00 c3 22 06 04 02 01 00 c2 26 06 03 02 01   ...........&....
|   2880: 00 c2 1e 02 b3 02 01 00 c0 3a 06 03 3c 01 00 bf   .........:..<...
|   2896: 2c 06 03 02 01 00 be 27 00 83 02 01 01 bd 15 06   ,......'........
|   2912: 03 02 01 00 bc 21 06 03 02 01 00 bb 54 16 13 02   .....!......T...
|   2928: 01 09 9a 0a 06 03 02 01 00 b9 53 06 03 02 01 00   ..........S.....
|   2944: b8 52 06 13 02 01 00 b7 1e 06 03 02 01 00 b6 34   .R.............4
|   2960: 06 13 02 01 00 b5 3a 05 f3 12 01 00 b4 45 05 03   ......:......E..
|   2976: 02 00 00 b4 6f 06 03 02 01 00 b2 03 06 03 02 01   ....o...........
|   2992: 00 b1 63 06 03 02 01 00 b0 24 06 03 02 01 00 9f   ..c......$......
|   3008: ac 06 03 02 01 00 a2 2f 07 03 02 01 01 ad 21 06   ......./......!.
|   3024: 03 02 01 fb cd 5b 06 c0 01 f1 00 ab 23 06 03 02   .....[......#...
|   3040: 01 00 aa 5b 06 03 02 01 00 a3 ce 06 02 03 01 00   ...[............
|   3056: a8 0e 06 03 02 01 00 a7 0c 06 02 f1 01 00 a6 0d   ................
|   3072: 06 03 02 01 00 95 25 06 03 02 01 00 a4 17 06 03   ......%.........
|   3088: 02 01 00 a3 09 06 03 02 01 00 a2 51 06 03 02 02   ...........Q....
|   3104: 00 a1 40 06 01 e2 00 00 a0 4b 06 13 02 00 00 9e   ..@......K......
|   3120: 5d 06 03 02 01 10 9e 81 06 03 02 01 00 9d 42 06   ].............B.
|   3136: 03 69 01 00 9c 48 06 03 02 01 00 9b 48 06 03 01   .i...H......H...
|   3152: 01 00 9a 09 06 03 02 01 00 99 2f 06 03 02 01 00   ........../.....
|   3168: 98 3a 06 03 02 01 00 97 24 06 03 02 01 00 96 4a   .:......$......J
|   3184: 06 03 02 11 00 f9 50 02 93 02 01 00 94 2f 06 03   ......P....../..
|   3200: 02 11 04 93 1a 06 03 01 04 e0 92 1a 06 03 02 01   ................
|   3216: 00 91 27 06 03 02 01 00 90 23 06 03 02 01 00 8f   ..'......#......
|   3232: 3b 06 03 02 01 00 8e 46 06 16 02 01 00 8d 1d 07   ;......F........
|   3248: 23 12 01 00 8c 5a 06 03 02 01 00 8a 39 06 03 02   #....Z......9...
|   3264: 00 ff 84 b5 06 03 02 01 00 89 07 06 03 02 11 00   ................
|   3280: 88 02 06 03 02 01 00 87 19 06 03 02 01 00 86 4d   ...............M
|   3296: 06 13 12 00 00 85 4b 06 03 02 01 00 84 37 06 13   ......K......7..
|   3312: 02 01 00 83 2c 06 03 02 01 00 81 60 06 13 02 11   ....,......`....
|   3328: 00 81 3b 06 03 02 01 0a b0 5a 06 03 01 01 7f 22   ..;......Z......
|   3344: 05 03 01 01 7e 21 05 03 01 01 7d 0b 15 03 01 02   ....~!..........
|   3360: 7b 08 05 03 06 91 7b 22 05 03 01 01 7a 58 05 03   ............zX..
|   3376: 01 01 7a 4f 05 03 01 01 78 49 05 03 01 01 77 16   ..zO....xI....w.
|   3392: 05 03 01 01 76 5f 05 03 01 01 75 0f 05 03 01 01   ....v_....u.....
|   3408: 74 2f 05 03 01 01 3f 1f 05 03 01 02 72 14 05 03   t/....?.....r...
|   3424: 00 f1 71 08 05 03 01 01 70 0c 05 03 01 47 7f 29   ..q.....p....G.)
|   3440: 05 03 01 01 6e 57 05 03 01 01 6d 33 05 13 00 f1   ....nW....m3....
|   3456: 6c 0b 05 03 01 01 6b 49 05 03 01 01 69 05 05 03   l.....kI....i...
|   3472: 01 02 ed 23 00 00 01 00 00 00 00 00 00 00 00 00   ...#............
| end crash-40d5739835cbdb.db



  SELECT 
    json_group_array(c) OVER win4 
  FROM t1
    WINDOW win4 AS (
        ORDER BY a COLLATE nocase RANGE BETWEEN 1.0 PRECEDING AND CURRENT ROW
    )

